{
  "address": "0xb900C5f7DE8B0AbCcE10D07ea7d6Dc790ebe8Da5",
  "abi": [
    {
      "inputs": [
        {
          "internalType": "address",
          "name": "vrfCoordinatorV2",
          "type": "address"
        },
        {
          "internalType": "uint64",
          "name": "subscriptionId",
          "type": "uint64"
        },
        {
          "internalType": "bytes32",
          "name": "gasLane",
          "type": "bytes32"
        },
        {
          "internalType": "uint256",
          "name": "mintFee",
          "type": "uint256"
        },
        {
          "internalType": "uint32",
          "name": "callbackGasLimit",
          "type": "uint32"
        },
        {
          "internalType": "string[3]",
          "name": "dogTokenUris",
          "type": "string[3]"
        }
      ],
      "stateMutability": "nonpayable",
      "type": "constructor"
    },
    {
      "inputs": [
        {
          "internalType": "address",
          "name": "have",
          "type": "address"
        },
        {
          "internalType": "address",
          "name": "want",
          "type": "address"
        }
      ],
      "name": "OnlyCoordinatorCanFulfill",
      "type": "error"
    },
    {
      "inputs": [],
      "name": "RandomIpfsNft__AlreadyInitialized",
      "type": "error"
    },
    {
      "inputs": [],
      "name": "RandomIpfsNft__NeedMoreETHSent",
      "type": "error"
    },
    {
      "inputs": [],
      "name": "RandomIpfsNft__RangeOutOfBounds",
      "type": "error"
    },
    {
      "inputs": [],
      "name": "RandomIpfsNft__TransferFailed",
      "type": "error"
    },
    {
      "anonymous": false,
      "inputs": [
        {
          "indexed": true,
          "internalType": "address",
          "name": "owner",
          "type": "address"
        },
        {
          "indexed": true,
          "internalType": "address",
          "name": "approved",
          "type": "address"
        },
        {
          "indexed": true,
          "internalType": "uint256",
          "name": "tokenId",
          "type": "uint256"
        }
      ],
      "name": "Approval",
      "type": "event"
    },
    {
      "anonymous": false,
      "inputs": [
        {
          "indexed": true,
          "internalType": "address",
          "name": "owner",
          "type": "address"
        },
        {
          "indexed": true,
          "internalType": "address",
          "name": "operator",
          "type": "address"
        },
        {
          "indexed": false,
          "internalType": "bool",
          "name": "approved",
          "type": "bool"
        }
      ],
      "name": "ApprovalForAll",
      "type": "event"
    },
    {
      "anonymous": false,
      "inputs": [
        {
          "indexed": false,
          "internalType": "enum RandomIpfsNft.Breed",
          "name": "breed",
          "type": "uint8"
        },
        {
          "indexed": false,
          "internalType": "address",
          "name": "minter",
          "type": "address"
        }
      ],
      "name": "NftMinted",
      "type": "event"
    },
    {
      "anonymous": false,
      "inputs": [
        {
          "indexed": true,
          "internalType": "uint256",
          "name": "requestId",
          "type": "uint256"
        },
        {
          "indexed": false,
          "internalType": "address",
          "name": "requester",
          "type": "address"
        }
      ],
      "name": "NftRequested",
      "type": "event"
    },
    {
      "anonymous": false,
      "inputs": [
        {
          "indexed": true,
          "internalType": "address",
          "name": "previousOwner",
          "type": "address"
        },
        {
          "indexed": true,
          "internalType": "address",
          "name": "newOwner",
          "type": "address"
        }
      ],
      "name": "OwnershipTransferred",
      "type": "event"
    },
    {
      "anonymous": false,
      "inputs": [
        {
          "indexed": true,
          "internalType": "address",
          "name": "from",
          "type": "address"
        },
        {
          "indexed": true,
          "internalType": "address",
          "name": "to",
          "type": "address"
        },
        {
          "indexed": true,
          "internalType": "uint256",
          "name": "tokenId",
          "type": "uint256"
        }
      ],
      "name": "Transfer",
      "type": "event"
    },
    {
      "inputs": [
        {
          "internalType": "address",
          "name": "to",
          "type": "address"
        },
        {
          "internalType": "uint256",
          "name": "tokenId",
          "type": "uint256"
        }
      ],
      "name": "approve",
      "outputs": [],
      "stateMutability": "nonpayable",
      "type": "function"
    },
    {
      "inputs": [
        {
          "internalType": "address",
          "name": "owner",
          "type": "address"
        }
      ],
      "name": "balanceOf",
      "outputs": [
        {
          "internalType": "uint256",
          "name": "",
          "type": "uint256"
        }
      ],
      "stateMutability": "view",
      "type": "function"
    },
    {
      "inputs": [
        {
          "internalType": "uint256",
          "name": "tokenId",
          "type": "uint256"
        }
      ],
      "name": "getApproved",
      "outputs": [
        {
          "internalType": "address",
          "name": "",
          "type": "address"
        }
      ],
      "stateMutability": "view",
      "type": "function"
    },
    {
      "inputs": [
        {
          "internalType": "uint256",
          "name": "moddedRng",
          "type": "uint256"
        }
      ],
      "name": "getBreedFromModdedRng",
      "outputs": [
        {
          "internalType": "enum RandomIpfsNft.Breed",
          "name": "",
          "type": "uint8"
        }
      ],
      "stateMutability": "pure",
      "type": "function"
    },
    {
      "inputs": [],
      "name": "getChanceArray",
      "outputs": [
        {
          "internalType": "uint256[3]",
          "name": "",
          "type": "uint256[3]"
        }
      ],
      "stateMutability": "pure",
      "type": "function"
    },
    {
      "inputs": [
        {
          "internalType": "uint256",
          "name": "index",
          "type": "uint256"
        }
      ],
      "name": "getDogTokenUris",
      "outputs": [
        {
          "internalType": "string",
          "name": "",
          "type": "string"
        }
      ],
      "stateMutability": "view",
      "type": "function"
    },
    {
      "inputs": [],
      "name": "getInitialized",
      "outputs": [
        {
          "internalType": "bool",
          "name": "",
          "type": "bool"
        }
      ],
      "stateMutability": "view",
      "type": "function"
    },
    {
      "inputs": [],
      "name": "getMintFee",
      "outputs": [
        {
          "internalType": "uint256",
          "name": "",
          "type": "uint256"
        }
      ],
      "stateMutability": "view",
      "type": "function"
    },
    {
      "inputs": [],
      "name": "getTokenCounter",
      "outputs": [
        {
          "internalType": "uint256",
          "name": "",
          "type": "uint256"
        }
      ],
      "stateMutability": "view",
      "type": "function"
    },
    {
      "inputs": [
        {
          "internalType": "address",
          "name": "owner",
          "type": "address"
        },
        {
          "internalType": "address",
          "name": "operator",
          "type": "address"
        }
      ],
      "name": "isApprovedForAll",
      "outputs": [
        {
          "internalType": "bool",
          "name": "",
          "type": "bool"
        }
      ],
      "stateMutability": "view",
      "type": "function"
    },
    {
      "inputs": [],
      "name": "name",
      "outputs": [
        {
          "internalType": "string",
          "name": "",
          "type": "string"
        }
      ],
      "stateMutability": "view",
      "type": "function"
    },
    {
      "inputs": [],
      "name": "owner",
      "outputs": [
        {
          "internalType": "address",
          "name": "",
          "type": "address"
        }
      ],
      "stateMutability": "view",
      "type": "function"
    },
    {
      "inputs": [
        {
          "internalType": "uint256",
          "name": "tokenId",
          "type": "uint256"
        }
      ],
      "name": "ownerOf",
      "outputs": [
        {
          "internalType": "address",
          "name": "",
          "type": "address"
        }
      ],
      "stateMutability": "view",
      "type": "function"
    },
    {
      "inputs": [
        {
          "internalType": "uint256",
          "name": "requestId",
          "type": "uint256"
        },
        {
          "internalType": "uint256[]",
          "name": "randomWords",
          "type": "uint256[]"
        }
      ],
      "name": "rawFulfillRandomWords",
      "outputs": [],
      "stateMutability": "nonpayable",
      "type": "function"
    },
    {
      "inputs": [],
      "name": "renounceOwnership",
      "outputs": [],
      "stateMutability": "nonpayable",
      "type": "function"
    },
    {
      "inputs": [],
      "name": "requestNft",
      "outputs": [
        {
          "internalType": "uint256",
          "name": "requestId",
          "type": "uint256"
        }
      ],
      "stateMutability": "payable",
      "type": "function"
    },
    {
      "inputs": [
        {
          "internalType": "uint256",
          "name": "",
          "type": "uint256"
        }
      ],
      "name": "s_requestIdToSender",
      "outputs": [
        {
          "internalType": "address",
          "name": "",
          "type": "address"
        }
      ],
      "stateMutability": "view",
      "type": "function"
    },
    {
      "inputs": [
        {
          "internalType": "address",
          "name": "from",
          "type": "address"
        },
        {
          "internalType": "address",
          "name": "to",
          "type": "address"
        },
        {
          "internalType": "uint256",
          "name": "tokenId",
          "type": "uint256"
        }
      ],
      "name": "safeTransferFrom",
      "outputs": [],
      "stateMutability": "nonpayable",
      "type": "function"
    },
    {
      "inputs": [
        {
          "internalType": "address",
          "name": "from",
          "type": "address"
        },
        {
          "internalType": "address",
          "name": "to",
          "type": "address"
        },
        {
          "internalType": "uint256",
          "name": "tokenId",
          "type": "uint256"
        },
        {
          "internalType": "bytes",
          "name": "data",
          "type": "bytes"
        }
      ],
      "name": "safeTransferFrom",
      "outputs": [],
      "stateMutability": "nonpayable",
      "type": "function"
    },
    {
      "inputs": [
        {
          "internalType": "address",
          "name": "operator",
          "type": "address"
        },
        {
          "internalType": "bool",
          "name": "approved",
          "type": "bool"
        }
      ],
      "name": "setApprovalForAll",
      "outputs": [],
      "stateMutability": "nonpayable",
      "type": "function"
    },
    {
      "inputs": [
        {
          "internalType": "bytes4",
          "name": "interfaceId",
          "type": "bytes4"
        }
      ],
      "name": "supportsInterface",
      "outputs": [
        {
          "internalType": "bool",
          "name": "",
          "type": "bool"
        }
      ],
      "stateMutability": "view",
      "type": "function"
    },
    {
      "inputs": [],
      "name": "symbol",
      "outputs": [
        {
          "internalType": "string",
          "name": "",
          "type": "string"
        }
      ],
      "stateMutability": "view",
      "type": "function"
    },
    {
      "inputs": [
        {
          "internalType": "uint256",
          "name": "tokenId",
          "type": "uint256"
        }
      ],
      "name": "tokenURI",
      "outputs": [
        {
          "internalType": "string",
          "name": "",
          "type": "string"
        }
      ],
      "stateMutability": "view",
      "type": "function"
    },
    {
      "inputs": [
        {
          "internalType": "address",
          "name": "from",
          "type": "address"
        },
        {
          "internalType": "address",
          "name": "to",
          "type": "address"
        },
        {
          "internalType": "uint256",
          "name": "tokenId",
          "type": "uint256"
        }
      ],
      "name": "transferFrom",
      "outputs": [],
      "stateMutability": "nonpayable",
      "type": "function"
    },
    {
      "inputs": [
        {
          "internalType": "address",
          "name": "newOwner",
          "type": "address"
        }
      ],
      "name": "transferOwnership",
      "outputs": [],
      "stateMutability": "nonpayable",
      "type": "function"
    },
    {
      "inputs": [],
      "name": "withdraw",
      "outputs": [],
      "stateMutability": "nonpayable",
      "type": "function"
    }
  ],
  "transactionHash": "0x63711126c87890ea7ad7890a11b753a793a7e90cb95b4f5bdcb7cdc99fd0a479",
  "args": [
    "0x2Ca8E0C643bDe4C2E08ab1fA0da3401AdAD7734D",
    "6753",
    "0x79d3d8832d904592c0bf9818b621522c988bb8b0c05cdc3b15aea1b6e8db0c15",
    "10000000000000000",
    "500000",
    [
      "ipfs://QmaVkBn2tKmjbhphU7eyztbvSQU5EXDdqRyXZtRhSGgJGo",
      "ipfs://QmYQC5aGZu2PTH8XzbJrbDnvhj3gVs7ya33H9mqUNvST3d",
      "ipfs://QmZYmH5iDbD6v3U2ixoVAjioSzvWJszDzYdbeCLquGSpVm"
    ]
  ],
  "numDeployments": 1,
  "solcInputHash": "970080bfc60a155985c809dc342a0451",
  "bytecode": "0x6101406040523480156200001257600080fd5b50604051620046093803806200460983398181016040528101906200003891906200088a565b856040518060400160405280600f81526020017f52616e646f6d2049504653204e465400000000000000000000000000000000008152506040518060400160405280600381526020017f52494e00000000000000000000000000000000000000000000000000000000008152508160009080519060200190620000bd9291906200031d565b508060019080519060200190620000d69291906200031d565b5050508073ffffffffffffffffffffffffffffffffffffffff1660808173ffffffffffffffffffffffffffffffffffffffff1660601b81525050506200013162000125620001d560201b60201c565b620001dd60201b60201c565b8573ffffffffffffffffffffffffffffffffffffffff1660a08173ffffffffffffffffffffffffffffffffffffffff1660601b815250508360e081815250508467ffffffffffffffff1660c08167ffffffffffffffff1660c01b815250508261012081815250508163ffffffff166101008163ffffffff1660e01b81525050620001c181620002a360201b60201c565b6000600881905550505050505050620009aa565b600033905090565b6000600760009054906101000a900473ffffffffffffffffffffffffffffffffffffffff16905081600760006101000a81548173ffffffffffffffffffffffffffffffffffffffff021916908373ffffffffffffffffffffffffffffffffffffffff1602179055508173ffffffffffffffffffffffffffffffffffffffff168173ffffffffffffffffffffffffffffffffffffffff167f8be0079c531659141344cd1fd0a4f28419497f9722a3daafe3b4186f6b6457e060405160405180910390a35050565b600a60009054906101000a900460ff1615620002eb576040517fddf8bf7000000000000000000000000000000000000000000000000000000000815260040160405180910390fd5b806009906003620002fe929190620003ae565b506001600a60006101000a81548160ff02191690831515021790555050565b8280546200032b9062000974565b90600052602060002090601f0160209004810192826200034f57600085556200039b565b82601f106200036a57805160ff19168380011785556200039b565b828001600101855582156200039b579182015b828111156200039a5782518255916020019190600101906200037d565b5b509050620003aa919062000415565b5090565b82805482825590600052602060002090810192821562000402579160200282015b8281111562000401578251829080519060200190620003f09291906200031d565b5091602001919060010190620003cf565b5b50905062000411919062000434565b5090565b5b808211156200043057600081600090555060010162000416565b5090565b5b808211156200045857600081816200044e91906200045c565b5060010162000435565b5090565b5080546200046a9062000974565b6000825580601f106200047e57506200049f565b601f0160209004906000526020600020908101906200049e919062000415565b5b50565b6000604051905090565b600080fd5b600080fd5b600073ffffffffffffffffffffffffffffffffffffffff82169050919050565b6000620004e382620004b6565b9050919050565b620004f581620004d6565b81146200050157600080fd5b50565b6000815190506200051581620004ea565b92915050565b600067ffffffffffffffff82169050919050565b6200053a816200051b565b81146200054657600080fd5b50565b6000815190506200055a816200052f565b92915050565b6000819050919050565b620005758162000560565b81146200058157600080fd5b50565b60008151905062000595816200056a565b92915050565b6000819050919050565b620005b0816200059b565b8114620005bc57600080fd5b50565b600081519050620005d081620005a5565b92915050565b600063ffffffff82169050919050565b620005f181620005d6565b8114620005fd57600080fd5b50565b6000815190506200061181620005e6565b92915050565b600080fd5b6000601f19601f8301169050919050565b7f4e487b7100000000000000000000000000000000000000000000000000000000600052604160045260246000fd5b62000667826200061c565b810181811067ffffffffffffffff821117156200068957620006886200062d565b5b80604052505050565b60006200069e620004a2565b9050620006ac82826200065c565b919050565b600067ffffffffffffffff821115620006cf57620006ce6200062d565b5b602082029050919050565b600080fd5b600080fd5b600067ffffffffffffffff8211156200070257620007016200062d565b5b6200070d826200061c565b9050602081019050919050565b60005b838110156200073a5780820151818401526020810190506200071d565b838111156200074a576000848401525b50505050565b6000620007676200076184620006e4565b62000692565b905082815260208101848484011115620007865762000785620006df565b5b620007938482856200071a565b509392505050565b600082601f830112620007b357620007b262000617565b5b8151620007c584826020860162000750565b91505092915050565b6000620007e5620007df84620006b1565b62000692565b90508060208402830185811115620008025762000801620006da565b5b835b818110156200085057805167ffffffffffffffff8111156200082b576200082a62000617565b5b8086016200083a89826200079b565b8552602085019450505060208101905062000804565b5050509392505050565b600082601f83011262000872576200087162000617565b5b600362000881848285620007ce565b91505092915050565b60008060008060008060c08789031215620008aa57620008a9620004ac565b5b6000620008ba89828a0162000504565b9650506020620008cd89828a0162000549565b9550506040620008e089828a0162000584565b9450506060620008f389828a01620005bf565b93505060806200090689828a0162000600565b92505060a087015167ffffffffffffffff8111156200092a5762000929620004b1565b5b6200093889828a016200085a565b9150509295509295509295565b7f4e487b7100000000000000000000000000000000000000000000000000000000600052602260045260246000fd5b600060028204905060018216806200098d57607f821691505b60208210811415620009a457620009a362000945565b5b50919050565b60805160601c60a05160601c60c05160c01c60e0516101005160e01c61012051613bf562000a1460003960008181610d450152610f3e0152600061101801526000610fd401526000610ff501526000610f98015260008181610917015261096b0152613bf56000f3fe6080604052600436106101815760003560e01c8063715018a6116100d1578063a51cccf31161008a578063c87b56dd11610064578063c87b56dd14610575578063e985e9c5146105b2578063ee89dab4146105ef578063f2fde38b1461061a57610181565b8063a51cccf3146104f1578063aa1524911461052e578063b88d4fde1461054c57610181565b8063715018a6146103f35780637a5caab31461040a5780638da5cb5b1461043557806395d89b4114610460578063a22cb4651461048b578063a36f573b146104b457610181565b80633af259751161013e5780635dacf5f4116101185780635dacf5f4146103235780636352211e1461034e5780636e02007d1461038b57806370a08231146103b657610181565b80633af25975146102a65780633ccfd60b146102e357806342842e0e146102fa57610181565b806301ffc9a71461018657806306fdde03146101c3578063081812fc146101ee578063095ea7b31461022b5780631fe543e31461025457806323b872dd1461027d575b600080fd5b34801561019257600080fd5b506101ad60048036038101906101a891906127d4565b610643565b6040516101ba919061281c565b60405180910390f35b3480156101cf57600080fd5b506101d8610725565b6040516101e591906128d0565b60405180910390f35b3480156101fa57600080fd5b5061021560048036038101906102109190612928565b6107b7565b6040516102229190612996565b60405180910390f35b34801561023757600080fd5b50610252600480360381019061024d91906129dd565b6107fd565b005b34801561026057600080fd5b5061027b60048036038101906102769190612b65565b610915565b005b34801561028957600080fd5b506102a4600480360381019061029f9190612bc1565b6109d5565b005b3480156102b257600080fd5b506102cd60048036038101906102c89190612928565b610a35565b6040516102da91906128d0565b60405180910390f35b3480156102ef57600080fd5b506102f8610ae5565b005b34801561030657600080fd5b50610321600480360381019061031c9190612bc1565b610b99565b005b34801561032f57600080fd5b50610338610bb9565b6040516103459190612cbf565b60405180910390f35b34801561035a57600080fd5b5061037560048036038101906103709190612928565b610be4565b6040516103829190612996565b60405180910390f35b34801561039757600080fd5b506103a0610c6b565b6040516103ad9190612ce9565b60405180910390f35b3480156103c257600080fd5b506103dd60048036038101906103d89190612d04565b610c75565b6040516103ea9190612ce9565b60405180910390f35b3480156103ff57600080fd5b50610408610d2d565b005b34801561041657600080fd5b5061041f610d41565b60405161042c9190612ce9565b60405180910390f35b34801561044157600080fd5b5061044a610d69565b6040516104579190612996565b60405180910390f35b34801561046c57600080fd5b50610475610d93565b60405161048291906128d0565b60405180910390f35b34801561049757600080fd5b506104b260048036038101906104ad9190612d5d565b610e25565b005b3480156104c057600080fd5b506104db60048036038101906104d69190612928565b610e3b565b6040516104e89190612996565b60405180910390f35b3480156104fd57600080fd5b5061051860048036038101906105139190612928565b610e6e565b6040516105259190612e14565b60405180910390f35b610536610f3a565b6040516105439190612ce9565b60405180910390f35b34801561055857600080fd5b50610573600480360381019061056e9190612ee4565b61113a565b005b34801561058157600080fd5b5061059c60048036038101906105979190612928565b61119c565b6040516105a991906128d0565b60405180910390f35b3480156105be57600080fd5b506105d960048036038101906105d49190612f67565b6112af565b6040516105e6919061281c565b60405180910390f35b3480156105fb57600080fd5b50610604611343565b604051610611919061281c565b60405180910390f35b34801561062657600080fd5b50610641600480360381019061063c9190612d04565b61135a565b005b60007f80ac58cd000000000000000000000000000000000000000000000000000000007bffffffffffffffffffffffffffffffffffffffffffffffffffffffff1916827bffffffffffffffffffffffffffffffffffffffffffffffffffffffff1916148061070e57507f5b5e139f000000000000000000000000000000000000000000000000000000007bffffffffffffffffffffffffffffffffffffffffffffffffffffffff1916827bffffffffffffffffffffffffffffffffffffffffffffffffffffffff1916145b8061071e575061071d826113de565b5b9050919050565b60606000805461073490612fd6565b80601f016020809104026020016040519081016040528092919081815260200182805461076090612fd6565b80156107ad5780601f10610782576101008083540402835291602001916107ad565b820191906000526020600020905b81548152906001019060200180831161079057829003601f168201915b5050505050905090565b60006107c282611448565b6004600083815260200190815260200160002060009054906101000a900473ffffffffffffffffffffffffffffffffffffffff169050919050565b600061080882610be4565b90508073ffffffffffffffffffffffffffffffffffffffff168373ffffffffffffffffffffffffffffffffffffffff161415610879576040517f08c379a00000000000000000000000000000000000000000000000000000000081526004016108709061307a565b60405180910390fd5b8073ffffffffffffffffffffffffffffffffffffffff16610898611493565b73ffffffffffffffffffffffffffffffffffffffff1614806108c757506108c6816108c1611493565b6112af565b5b610906576040517f08c379a00000000000000000000000000000000000000000000000000000000081526004016108fd9061310c565b60405180910390fd5b610910838361149b565b505050565b7f000000000000000000000000000000000000000000000000000000000000000073ffffffffffffffffffffffffffffffffffffffff163373ffffffffffffffffffffffffffffffffffffffff16146109c757337f00000000000000000000000000000000000000000000000000000000000000006040517f1cf993f40000000000000000000000000000000000000000000000000000000081526004016109be92919061312c565b60405180910390fd5b6109d18282611554565b5050565b6109e66109e0611493565b826116ee565b610a25576040517f08c379a0000000000000000000000000000000000000000000000000000000008152600401610a1c906131c7565b60405180910390fd5b610a30838383611783565b505050565b606060098281548110610a4b57610a4a6131e7565b5b906000526020600020018054610a6090612fd6565b80601f0160208091040260200160405190810160405280929190818152602001828054610a8c90612fd6565b8015610ad95780601f10610aae57610100808354040283529160200191610ad9565b820191906000526020600020905b815481529060010190602001808311610abc57829003601f168201915b50505050509050919050565b610aed611a7d565b600047905060003373ffffffffffffffffffffffffffffffffffffffff1682604051610b1890613247565b60006040518083038185875af1925050503d8060008114610b55576040519150601f19603f3d011682016040523d82523d6000602084013e610b5a565b606091505b5050905080610b95576040517fca7e25b700000000000000000000000000000000000000000000000000000000815260040160405180910390fd5b5050565b610bb48383836040518060200160405280600081525061113a565b505050565b610bc16126a3565b6040518060600160405280600a8152602001602881526020016064815250905090565b600080610bf083611afb565b9050600073ffffffffffffffffffffffffffffffffffffffff168173ffffffffffffffffffffffffffffffffffffffff161415610c62576040517f08c379a0000000000000000000000000000000000000000000000000000000008152600401610c59906132a8565b60405180910390fd5b80915050919050565b6000600854905090565b60008073ffffffffffffffffffffffffffffffffffffffff168273ffffffffffffffffffffffffffffffffffffffff161415610ce6576040517f08c379a0000000000000000000000000000000000000000000000000000000008152600401610cdd9061333a565b60405180910390fd5b600360008373ffffffffffffffffffffffffffffffffffffffff1673ffffffffffffffffffffffffffffffffffffffff168152602001908152602001600020549050919050565b610d35611a7d565b610d3f6000611b38565b565b60007f0000000000000000000000000000000000000000000000000000000000000000905090565b6000600760009054906101000a900473ffffffffffffffffffffffffffffffffffffffff16905090565b606060018054610da290612fd6565b80601f0160208091040260200160405190810160405280929190818152602001828054610dce90612fd6565b8015610e1b5780601f10610df057610100808354040283529160200191610e1b565b820191906000526020600020905b815481529060010190602001808311610dfe57829003601f168201915b5050505050905090565b610e37610e30611493565b8383611bfe565b5050565b600b6020528060005260406000206000915054906101000a900473ffffffffffffffffffffffffffffffffffffffff1681565b600080600090506000610e7f610bb9565b905060005b6003811015610f0257828510158015610eb35750818160038110610eab57610eaa6131e7565b5b602002015185105b15610ed557806002811115610ecb57610eca612d9d565b5b9350505050610f35565b818160038110610ee857610ee76131e7565b5b602002015192508080610efa90613389565b915050610e84565b506040517f12806c9d00000000000000000000000000000000000000000000000000000000815260040160405180910390fd5b919050565b60007f0000000000000000000000000000000000000000000000000000000000000000341015610f96576040517fb90f491000000000000000000000000000000000000000000000000000000000815260040160405180910390fd5b7f000000000000000000000000000000000000000000000000000000000000000073ffffffffffffffffffffffffffffffffffffffff16635d3b1d307f00000000000000000000000000000000000000000000000000000000000000007f000000000000000000000000000000000000000000000000000000000000000060037f000000000000000000000000000000000000000000000000000000000000000060016040518663ffffffff1660e01b815260040161105995949392919061344a565b602060405180830381600087803b15801561107357600080fd5b505af1158015611087573d6000803e3d6000fd5b505050506040513d601f19601f820116820180604052508101906110ab91906134b2565b905033600b600083815260200190815260200160002060006101000a81548173ffffffffffffffffffffffffffffffffffffffff021916908373ffffffffffffffffffffffffffffffffffffffff160217905550807ff873236e6cc0ecc5be1a9a35c95ee5b8d1ac4cc7bfef0cc5060391d6cc98e26b3360405161112f9190612996565b60405180910390a290565b61114b611145611493565b836116ee565b61118a576040517f08c379a0000000000000000000000000000000000000000000000000000000008152600401611181906131c7565b60405180910390fd5b61119684848484611d6b565b50505050565b60606111a782611448565b60006006600084815260200190815260200160002080546111c790612fd6565b80601f01602080910402602001604051908101604052809291908181526020018280546111f390612fd6565b80156112405780601f1061121557610100808354040283529160200191611240565b820191906000526020600020905b81548152906001019060200180831161122357829003601f168201915b505050505090506000611251611dc7565b90506000815114156112675781925050506112aa565b60008251111561129c57808260405160200161128492919061351b565b604051602081830303815290604052925050506112aa565b6112a584611dde565b925050505b919050565b6000600560008473ffffffffffffffffffffffffffffffffffffffff1673ffffffffffffffffffffffffffffffffffffffff16815260200190815260200160002060008373ffffffffffffffffffffffffffffffffffffffff1673ffffffffffffffffffffffffffffffffffffffff16815260200190815260200160002060009054906101000a900460ff16905092915050565b6000600a60009054906101000a900460ff16905090565b611362611a7d565b600073ffffffffffffffffffffffffffffffffffffffff168173ffffffffffffffffffffffffffffffffffffffff1614156113d2576040517f08c379a00000000000000000000000000000000000000000000000000000000081526004016113c9906135b1565b60405180910390fd5b6113db81611b38565b50565b60007f01ffc9a7000000000000000000000000000000000000000000000000000000007bffffffffffffffffffffffffffffffffffffffffffffffffffffffff1916827bffffffffffffffffffffffffffffffffffffffffffffffffffffffff1916149050919050565b61145181611e46565b611490576040517f08c379a0000000000000000000000000000000000000000000000000000000008152600401611487906132a8565b60405180910390fd5b50565b600033905090565b816004600083815260200190815260200160002060006101000a81548173ffffffffffffffffffffffffffffffffffffffff021916908373ffffffffffffffffffffffffffffffffffffffff160217905550808273ffffffffffffffffffffffffffffffffffffffff1661150e83610be4565b73ffffffffffffffffffffffffffffffffffffffff167f8c5be1e5ebec7d5bd14f71427d1e84f3dd0314c0f7b2291e5b200ac8c7c3b92560405160405180910390a45050565b6000600b600084815260200190815260200160002060009054906101000a900473ffffffffffffffffffffffffffffffffffffffff1690506000600854905060016008546115a291906135d1565b60088190555060006064846000815181106115c0576115bf6131e7565b5b60200260200101516115d29190613656565b905060006115df82610e6e565b90506115eb8484611e87565b6116ad83600983600281111561160457611603612d9d565b5b81548110611615576116146131e7565b5b90600052602060002001805461162a90612fd6565b80601f016020809104026020016040519081016040528092919081815260200182805461165690612fd6565b80156116a35780601f10611678576101008083540402835291602001916116a3565b820191906000526020600020905b81548152906001019060200180831161168657829003601f168201915b5050505050611ea5565b7f8a269f26b688e110e9cbd887d163dab35cae678fa353a0292de532c0cac1ecdc81856040516116de929190613687565b60405180910390a1505050505050565b6000806116fa83610be4565b90508073ffffffffffffffffffffffffffffffffffffffff168473ffffffffffffffffffffffffffffffffffffffff16148061173c575061173b81856112af565b5b8061177a57508373ffffffffffffffffffffffffffffffffffffffff16611762846107b7565b73ffffffffffffffffffffffffffffffffffffffff16145b91505092915050565b8273ffffffffffffffffffffffffffffffffffffffff166117a382610be4565b73ffffffffffffffffffffffffffffffffffffffff16146117f9576040517f08c379a00000000000000000000000000000000000000000000000000000000081526004016117f090613722565b60405180910390fd5b600073ffffffffffffffffffffffffffffffffffffffff168273ffffffffffffffffffffffffffffffffffffffff161415611869576040517f08c379a0000000000000000000000000000000000000000000000000000000008152600401611860906137b4565b60405180910390fd5b6118768383836001611f19565b8273ffffffffffffffffffffffffffffffffffffffff1661189682610be4565b73ffffffffffffffffffffffffffffffffffffffff16146118ec576040517f08c379a00000000000000000000000000000000000000000000000000000000081526004016118e390613722565b60405180910390fd5b6004600082815260200190815260200160002060006101000a81549073ffffffffffffffffffffffffffffffffffffffff02191690556001600360008573ffffffffffffffffffffffffffffffffffffffff1673ffffffffffffffffffffffffffffffffffffffff168152602001908152602001600020600082825403925050819055506001600360008473ffffffffffffffffffffffffffffffffffffffff1673ffffffffffffffffffffffffffffffffffffffff16815260200190815260200160002060008282540192505081905550816002600083815260200190815260200160002060006101000a81548173ffffffffffffffffffffffffffffffffffffffff021916908373ffffffffffffffffffffffffffffffffffffffff160217905550808273ffffffffffffffffffffffffffffffffffffffff168473ffffffffffffffffffffffffffffffffffffffff167fddf252ad1be2c89b69c2b068fc378daa952ba7f163c4a11628f55a4df523b3ef60405160405180910390a4611a78838383600161203f565b505050565b611a85611493565b73ffffffffffffffffffffffffffffffffffffffff16611aa3610d69565b73ffffffffffffffffffffffffffffffffffffffff1614611af9576040517f08c379a0000000000000000000000000000000000000000000000000000000008152600401611af090613820565b60405180910390fd5b565b60006002600083815260200190815260200160002060009054906101000a900473ffffffffffffffffffffffffffffffffffffffff169050919050565b6000600760009054906101000a900473ffffffffffffffffffffffffffffffffffffffff16905081600760006101000a81548173ffffffffffffffffffffffffffffffffffffffff021916908373ffffffffffffffffffffffffffffffffffffffff1602179055508173ffffffffffffffffffffffffffffffffffffffff168173ffffffffffffffffffffffffffffffffffffffff167f8be0079c531659141344cd1fd0a4f28419497f9722a3daafe3b4186f6b6457e060405160405180910390a35050565b8173ffffffffffffffffffffffffffffffffffffffff168373ffffffffffffffffffffffffffffffffffffffff161415611c6d576040517f08c379a0000000000000000000000000000000000000000000000000000000008152600401611c649061388c565b60405180910390fd5b80600560008573ffffffffffffffffffffffffffffffffffffffff1673ffffffffffffffffffffffffffffffffffffffff16815260200190815260200160002060008473ffffffffffffffffffffffffffffffffffffffff1673ffffffffffffffffffffffffffffffffffffffff16815260200190815260200160002060006101000a81548160ff0219169083151502179055508173ffffffffffffffffffffffffffffffffffffffff168373ffffffffffffffffffffffffffffffffffffffff167f17307eab39ab6107e8899845ad3d59bd9653f200f220920489ca2b5937696c3183604051611d5e919061281c565b60405180910390a3505050565b611d76848484611783565b611d8284848484612045565b611dc1576040517f08c379a0000000000000000000000000000000000000000000000000000000008152600401611db89061391e565b60405180910390fd5b50505050565b606060405180602001604052806000815250905090565b6060611de982611448565b6000611df3611dc7565b90506000815111611e135760405180602001604052806000815250611e3e565b80611e1d846121dc565b604051602001611e2e92919061351b565b6040516020818303038152906040525b915050919050565b60008073ffffffffffffffffffffffffffffffffffffffff16611e6883611afb565b73ffffffffffffffffffffffffffffffffffffffff1614159050919050565b611ea18282604051806020016040528060008152506122b4565b5050565b611eae82611e46565b611eed576040517f08c379a0000000000000000000000000000000000000000000000000000000008152600401611ee4906139b0565b60405180910390fd5b80600660008481526020019081526020016000209080519060200190611f149291906126c5565b505050565b600181111561203957600073ffffffffffffffffffffffffffffffffffffffff168473ffffffffffffffffffffffffffffffffffffffff1614611fad5780600360008673ffffffffffffffffffffffffffffffffffffffff1673ffffffffffffffffffffffffffffffffffffffff1681526020019081526020016000206000828254611fa591906139d0565b925050819055505b600073ffffffffffffffffffffffffffffffffffffffff168373ffffffffffffffffffffffffffffffffffffffff16146120385780600360008573ffffffffffffffffffffffffffffffffffffffff1673ffffffffffffffffffffffffffffffffffffffff168152602001908152602001600020600082825461203091906135d1565b925050819055505b5b50505050565b50505050565b60006120668473ffffffffffffffffffffffffffffffffffffffff1661230f565b156121cf578373ffffffffffffffffffffffffffffffffffffffff1663150b7a0261208f611493565b8786866040518563ffffffff1660e01b81526004016120b19493929190613a59565b602060405180830381600087803b1580156120cb57600080fd5b505af19250505080156120fc57506040513d601f19601f820116820180604052508101906120f99190613aba565b60015b61217f573d806000811461212c576040519150601f19603f3d011682016040523d82523d6000602084013e612131565b606091505b50600081511415612177576040517f08c379a000000000000000000000000000000000000000000000000000000000815260040161216e9061391e565b60405180910390fd5b805181602001fd5b63150b7a0260e01b7bffffffffffffffffffffffffffffffffffffffffffffffffffffffff1916817bffffffffffffffffffffffffffffffffffffffffffffffffffffffff1916149150506121d4565b600190505b949350505050565b6060600060016121eb84612332565b01905060008167ffffffffffffffff81111561220a57612209612a22565b5b6040519080825280601f01601f19166020018201604052801561223c5781602001600182028036833780820191505090505b509050600082602001820190505b6001156122a9578080600190039150507f3031323334353637383961626364656600000000000000000000000000000000600a86061a8153600a858161229357612292613627565b5b04945060008514156122a4576122a9565b61224a565b819350505050919050565b6122be8383612485565b6122cb6000848484612045565b61230a576040517f08c379a00000000000000000000000000000000000000000000000000000000081526004016123019061391e565b60405180910390fd5b505050565b6000808273ffffffffffffffffffffffffffffffffffffffff163b119050919050565b600080600090507a184f03e93ff9f4daa797ed6e38ed64bf6a1f0100000000000000008310612390577a184f03e93ff9f4daa797ed6e38ed64bf6a1f010000000000000000838161238657612385613627565b5b0492506040810190505b6d04ee2d6d415b85acef810000000083106123cd576d04ee2d6d415b85acef810000000083816123c3576123c2613627565b5b0492506020810190505b662386f26fc1000083106123fc57662386f26fc1000083816123f2576123f1613627565b5b0492506010810190505b6305f5e1008310612425576305f5e100838161241b5761241a613627565b5b0492506008810190505b612710831061244a5761271083816124405761243f613627565b5b0492506004810190505b6064831061246d576064838161246357612462613627565b5b0492506002810190505b600a831061247c576001810190505b80915050919050565b600073ffffffffffffffffffffffffffffffffffffffff168273ffffffffffffffffffffffffffffffffffffffff1614156124f5576040517f08c379a00000000000000000000000000000000000000000000000000000000081526004016124ec90613b33565b60405180910390fd5b6124fe81611e46565b1561253e576040517f08c379a000000000000000000000000000000000000000000000000000000000815260040161253590613b9f565b60405180910390fd5b61254c600083836001611f19565b61255581611e46565b15612595576040517f08c379a000000000000000000000000000000000000000000000000000000000815260040161258c90613b9f565b60405180910390fd5b6001600360008473ffffffffffffffffffffffffffffffffffffffff1673ffffffffffffffffffffffffffffffffffffffff16815260200190815260200160002060008282540192505081905550816002600083815260200190815260200160002060006101000a81548173ffffffffffffffffffffffffffffffffffffffff021916908373ffffffffffffffffffffffffffffffffffffffff160217905550808273ffffffffffffffffffffffffffffffffffffffff16600073ffffffffffffffffffffffffffffffffffffffff167fddf252ad1be2c89b69c2b068fc378daa952ba7f163c4a11628f55a4df523b3ef60405160405180910390a461269f60008383600161203f565b5050565b6040518060600160405280600390602082028036833780820191505090505090565b8280546126d190612fd6565b90600052602060002090601f0160209004810192826126f3576000855561273a565b82601f1061270c57805160ff191683800117855561273a565b8280016001018555821561273a579182015b8281111561273957825182559160200191906001019061271e565b5b509050612747919061274b565b5090565b5b8082111561276457600081600090555060010161274c565b5090565b6000604051905090565b600080fd5b600080fd5b60007fffffffff0000000000000000000000000000000000000000000000000000000082169050919050565b6127b18161277c565b81146127bc57600080fd5b50565b6000813590506127ce816127a8565b92915050565b6000602082840312156127ea576127e9612772565b5b60006127f8848285016127bf565b91505092915050565b60008115159050919050565b61281681612801565b82525050565b6000602082019050612831600083018461280d565b92915050565b600081519050919050565b600082825260208201905092915050565b60005b83811015612871578082015181840152602081019050612856565b83811115612880576000848401525b50505050565b6000601f19601f8301169050919050565b60006128a282612837565b6128ac8185612842565b93506128bc818560208601612853565b6128c581612886565b840191505092915050565b600060208201905081810360008301526128ea8184612897565b905092915050565b6000819050919050565b612905816128f2565b811461291057600080fd5b50565b600081359050612922816128fc565b92915050565b60006020828403121561293e5761293d612772565b5b600061294c84828501612913565b91505092915050565b600073ffffffffffffffffffffffffffffffffffffffff82169050919050565b600061298082612955565b9050919050565b61299081612975565b82525050565b60006020820190506129ab6000830184612987565b92915050565b6129ba81612975565b81146129c557600080fd5b50565b6000813590506129d7816129b1565b92915050565b600080604083850312156129f4576129f3612772565b5b6000612a02858286016129c8565b9250506020612a1385828601612913565b9150509250929050565b600080fd5b7f4e487b7100000000000000000000000000000000000000000000000000000000600052604160045260246000fd5b612a5a82612886565b810181811067ffffffffffffffff82111715612a7957612a78612a22565b5b80604052505050565b6000612a8c612768565b9050612a988282612a51565b919050565b600067ffffffffffffffff821115612ab857612ab7612a22565b5b602082029050602081019050919050565b600080fd5b6000612ae1612adc84612a9d565b612a82565b90508083825260208201905060208402830185811115612b0457612b03612ac9565b5b835b81811015612b2d5780612b198882612913565b845260208401935050602081019050612b06565b5050509392505050565b600082601f830112612b4c57612b4b612a1d565b5b8135612b5c848260208601612ace565b91505092915050565b60008060408385031215612b7c57612b7b612772565b5b6000612b8a85828601612913565b925050602083013567ffffffffffffffff811115612bab57612baa612777565b5b612bb785828601612b37565b9150509250929050565b600080600060608486031215612bda57612bd9612772565b5b6000612be8868287016129c8565b9350506020612bf9868287016129c8565b9250506040612c0a86828701612913565b9150509250925092565b600060039050919050565b600081905092915050565b6000819050919050565b612c3d816128f2565b82525050565b6000612c4f8383612c34565b60208301905092915050565b6000602082019050919050565b612c7181612c14565b612c7b8184612c1f565b9250612c8682612c2a565b8060005b83811015612cb7578151612c9e8782612c43565b9650612ca983612c5b565b925050600181019050612c8a565b505050505050565b6000606082019050612cd46000830184612c68565b92915050565b612ce3816128f2565b82525050565b6000602082019050612cfe6000830184612cda565b92915050565b600060208284031215612d1a57612d19612772565b5b6000612d28848285016129c8565b91505092915050565b612d3a81612801565b8114612d4557600080fd5b50565b600081359050612d5781612d31565b92915050565b60008060408385031215612d7457612d73612772565b5b6000612d82858286016129c8565b9250506020612d9385828601612d48565b9150509250929050565b7f4e487b7100000000000000000000000000000000000000000000000000000000600052602160045260246000fd5b60038110612ddd57612ddc612d9d565b5b50565b6000819050612dee82612dcc565b919050565b6000612dfe82612de0565b9050919050565b612e0e81612df3565b82525050565b6000602082019050612e296000830184612e05565b92915050565b600080fd5b600067ffffffffffffffff821115612e4f57612e4e612a22565b5b612e5882612886565b9050602081019050919050565b82818337600083830152505050565b6000612e87612e8284612e34565b612a82565b905082815260208101848484011115612ea357612ea2612e2f565b5b612eae848285612e65565b509392505050565b600082601f830112612ecb57612eca612a1d565b5b8135612edb848260208601612e74565b91505092915050565b60008060008060808587031215612efe57612efd612772565b5b6000612f0c878288016129c8565b9450506020612f1d878288016129c8565b9350506040612f2e87828801612913565b925050606085013567ffffffffffffffff811115612f4f57612f4e612777565b5b612f5b87828801612eb6565b91505092959194509250565b60008060408385031215612f7e57612f7d612772565b5b6000612f8c858286016129c8565b9250506020612f9d858286016129c8565b9150509250929050565b7f4e487b7100000000000000000000000000000000000000000000000000000000600052602260045260246000fd5b60006002820490506001821680612fee57607f821691505b6020821081141561300257613001612fa7565b5b50919050565b7f4552433732313a20617070726f76616c20746f2063757272656e74206f776e6560008201527f7200000000000000000000000000000000000000000000000000000000000000602082015250565b6000613064602183612842565b915061306f82613008565b604082019050919050565b6000602082019050818103600083015261309381613057565b9050919050565b7f4552433732313a20617070726f76652063616c6c6572206973206e6f7420746f60008201527f6b656e206f776e6572206f7220617070726f76656420666f7220616c6c000000602082015250565b60006130f6603d83612842565b91506131018261309a565b604082019050919050565b60006020820190508181036000830152613125816130e9565b9050919050565b60006040820190506131416000830185612987565b61314e6020830184612987565b9392505050565b7f4552433732313a2063616c6c6572206973206e6f7420746f6b656e206f776e6560008201527f72206f7220617070726f76656400000000000000000000000000000000000000602082015250565b60006131b1602d83612842565b91506131bc82613155565b604082019050919050565b600060208201905081810360008301526131e0816131a4565b9050919050565b7f4e487b7100000000000000000000000000000000000000000000000000000000600052603260045260246000fd5b600081905092915050565b50565b6000613231600083613216565b915061323c82613221565b600082019050919050565b600061325282613224565b9150819050919050565b7f4552433732313a20696e76616c696420746f6b656e2049440000000000000000600082015250565b6000613292601883612842565b915061329d8261325c565b602082019050919050565b600060208201905081810360008301526132c181613285565b9050919050565b7f4552433732313a2061646472657373207a65726f206973206e6f74206120766160008201527f6c6964206f776e65720000000000000000000000000000000000000000000000602082015250565b6000613324602983612842565b915061332f826132c8565b604082019050919050565b6000602082019050818103600083015261335381613317565b9050919050565b7f4e487b7100000000000000000000000000000000000000000000000000000000600052601160045260246000fd5b6000613394826128f2565b91507fffffffffffffffffffffffffffffffffffffffffffffffffffffffffffffffff8214156133c7576133c661335a565b5b600182019050919050565b6000819050919050565b6133e5816133d2565b82525050565b600067ffffffffffffffff82169050919050565b613408816133eb565b82525050565b600061ffff82169050919050565b6134258161340e565b82525050565b600063ffffffff82169050919050565b6134448161342b565b82525050565b600060a08201905061345f60008301886133dc565b61346c60208301876133ff565b613479604083018661341c565b613486606083018561343b565b613493608083018461343b565b9695505050505050565b6000815190506134ac816128fc565b92915050565b6000602082840312156134c8576134c7612772565b5b60006134d68482850161349d565b91505092915050565b600081905092915050565b60006134f582612837565b6134ff81856134df565b935061350f818560208601612853565b80840191505092915050565b600061352782856134ea565b915061353382846134ea565b91508190509392505050565b7f4f776e61626c653a206e6577206f776e657220697320746865207a65726f206160008201527f6464726573730000000000000000000000000000000000000000000000000000602082015250565b600061359b602683612842565b91506135a68261353f565b604082019050919050565b600060208201905081810360008301526135ca8161358e565b9050919050565b60006135dc826128f2565b91506135e7836128f2565b9250827fffffffffffffffffffffffffffffffffffffffffffffffffffffffffffffffff0382111561361c5761361b61335a565b5b828201905092915050565b7f4e487b7100000000000000000000000000000000000000000000000000000000600052601260045260246000fd5b6000613661826128f2565b915061366c836128f2565b92508261367c5761367b613627565b5b828206905092915050565b600060408201905061369c6000830185612e05565b6136a96020830184612987565b9392505050565b7f4552433732313a207472616e736665722066726f6d20696e636f72726563742060008201527f6f776e6572000000000000000000000000000000000000000000000000000000602082015250565b600061370c602583612842565b9150613717826136b0565b604082019050919050565b6000602082019050818103600083015261373b816136ff565b9050919050565b7f4552433732313a207472616e7366657220746f20746865207a65726f2061646460008201527f7265737300000000000000000000000000000000000000000000000000000000602082015250565b600061379e602483612842565b91506137a982613742565b604082019050919050565b600060208201905081810360008301526137cd81613791565b9050919050565b7f4f776e61626c653a2063616c6c6572206973206e6f7420746865206f776e6572600082015250565b600061380a602083612842565b9150613815826137d4565b602082019050919050565b60006020820190508181036000830152613839816137fd565b9050919050565b7f4552433732313a20617070726f766520746f2063616c6c657200000000000000600082015250565b6000613876601983612842565b915061388182613840565b602082019050919050565b600060208201905081810360008301526138a581613869565b9050919050565b7f4552433732313a207472616e7366657220746f206e6f6e20455243373231526560008201527f63656976657220696d706c656d656e7465720000000000000000000000000000602082015250565b6000613908603283612842565b9150613913826138ac565b604082019050919050565b60006020820190508181036000830152613937816138fb565b9050919050565b7f45524337323155524953746f726167653a2055524920736574206f66206e6f6e60008201527f6578697374656e7420746f6b656e000000000000000000000000000000000000602082015250565b600061399a602e83612842565b91506139a58261393e565b604082019050919050565b600060208201905081810360008301526139c98161398d565b9050919050565b60006139db826128f2565b91506139e6836128f2565b9250828210156139f9576139f861335a565b5b828203905092915050565b600081519050919050565b600082825260208201905092915050565b6000613a2b82613a04565b613a358185613a0f565b9350613a45818560208601612853565b613a4e81612886565b840191505092915050565b6000608082019050613a6e6000830187612987565b613a7b6020830186612987565b613a886040830185612cda565b8181036060830152613a9a8184613a20565b905095945050505050565b600081519050613ab4816127a8565b92915050565b600060208284031215613ad057613acf612772565b5b6000613ade84828501613aa5565b91505092915050565b7f4552433732313a206d696e7420746f20746865207a65726f2061646472657373600082015250565b6000613b1d602083612842565b9150613b2882613ae7565b602082019050919050565b60006020820190508181036000830152613b4c81613b10565b9050919050565b7f4552433732313a20746f6b656e20616c7265616479206d696e74656400000000600082015250565b6000613b89601c83612842565b9150613b9482613b53565b602082019050919050565b60006020820190508181036000830152613bb881613b7c565b905091905056fea2646970667358221220eb6a7b3e34f1f17701763aea291a67bb5646f534ff49d2e7e833af5f377988f764736f6c63430008080033",
  "devdoc": {
    "kind": "dev",
    "methods": {
      "approve(address,uint256)": {
        "details": "See {IERC721-approve}."
      },
      "balanceOf(address)": {
        "details": "See {IERC721-balanceOf}."
      },
      "getApproved(uint256)": {
        "details": "See {IERC721-getApproved}."
      },
      "isApprovedForAll(address,address)": {
        "details": "See {IERC721-isApprovedForAll}."
      },
      "name()": {
        "details": "See {IERC721Metadata-name}."
      },
      "owner()": {
        "details": "Returns the address of the current owner."
      },
      "ownerOf(uint256)": {
        "details": "See {IERC721-ownerOf}."
      },
      "renounceOwnership()": {
        "details": "Leaves the contract without owner. It will not be possible to call `onlyOwner` functions anymore. Can only be called by the current owner. NOTE: Renouncing ownership will leave the contract without an owner, thereby removing any functionality that is only available to the owner."
      },
      "safeTransferFrom(address,address,uint256)": {
        "details": "See {IERC721-safeTransferFrom}."
      },
      "safeTransferFrom(address,address,uint256,bytes)": {
        "details": "See {IERC721-safeTransferFrom}."
      },
      "setApprovalForAll(address,bool)": {
        "details": "See {IERC721-setApprovalForAll}."
      },
      "supportsInterface(bytes4)": {
        "details": "See {IERC165-supportsInterface}."
      },
      "symbol()": {
        "details": "See {IERC721Metadata-symbol}."
      },
      "tokenURI(uint256)": {
        "details": "See {IERC721Metadata-tokenURI}."
      },
      "transferFrom(address,address,uint256)": {
        "details": "See {IERC721-transferFrom}."
      },
      "transferOwnership(address)": {
        "details": "Transfers ownership of the contract to a new account (`newOwner`). Can only be called by the current owner."
      }
    },
    "version": 1
  },
  "userdoc": {
    "kind": "user",
    "methods": {},
    "version": 1
  },
  "storageLayout": {
    "storage": [
      {
        "astId": 1296,
        "contract": "contracts/RandomIpfsNft.sol:RandomIpfsNft",
        "label": "_name",
        "offset": 0,
        "slot": "0",
        "type": "t_string_storage"
      },
      {
        "astId": 1298,
        "contract": "contracts/RandomIpfsNft.sol:RandomIpfsNft",
        "label": "_symbol",
        "offset": 0,
        "slot": "1",
        "type": "t_string_storage"
      },
      {
        "astId": 1302,
        "contract": "contracts/RandomIpfsNft.sol:RandomIpfsNft",
        "label": "_owners",
        "offset": 0,
        "slot": "2",
        "type": "t_mapping(t_uint256,t_address)"
      },
      {
        "astId": 1306,
        "contract": "contracts/RandomIpfsNft.sol:RandomIpfsNft",
        "label": "_balances",
        "offset": 0,
        "slot": "3",
        "type": "t_mapping(t_address,t_uint256)"
      },
      {
        "astId": 1310,
        "contract": "contracts/RandomIpfsNft.sol:RandomIpfsNft",
        "label": "_tokenApprovals",
        "offset": 0,
        "slot": "4",
        "type": "t_mapping(t_uint256,t_address)"
      },
      {
        "astId": 1316,
        "contract": "contracts/RandomIpfsNft.sol:RandomIpfsNft",
        "label": "_operatorApprovals",
        "offset": 0,
        "slot": "5",
        "type": "t_mapping(t_address,t_mapping(t_address,t_bool))"
      },
      {
        "astId": 2362,
        "contract": "contracts/RandomIpfsNft.sol:RandomIpfsNft",
        "label": "_tokenURIs",
        "offset": 0,
        "slot": "6",
        "type": "t_mapping(t_uint256,t_string_storage)"
      },
      {
        "astId": 1165,
        "contract": "contracts/RandomIpfsNft.sol:RandomIpfsNft",
        "label": "_owner",
        "offset": 0,
        "slot": "7",
        "type": "t_address"
      },
      {
        "astId": 4387,
        "contract": "contracts/RandomIpfsNft.sol:RandomIpfsNft",
        "label": "s_tokenCounter",
        "offset": 0,
        "slot": "8",
        "type": "t_uint256"
      },
      {
        "astId": 4393,
        "contract": "contracts/RandomIpfsNft.sol:RandomIpfsNft",
        "label": "s_dogTokenUris",
        "offset": 0,
        "slot": "9",
        "type": "t_array(t_string_storage)dyn_storage"
      },
      {
        "astId": 4395,
        "contract": "contracts/RandomIpfsNft.sol:RandomIpfsNft",
        "label": "s_initialized",
        "offset": 0,
        "slot": "10",
        "type": "t_bool"
      },
      {
        "astId": 4399,
        "contract": "contracts/RandomIpfsNft.sol:RandomIpfsNft",
        "label": "s_requestIdToSender",
        "offset": 0,
        "slot": "11",
        "type": "t_mapping(t_uint256,t_address)"
      }
    ],
    "types": {
      "t_address": {
        "encoding": "inplace",
        "label": "address",
        "numberOfBytes": "20"
      },
      "t_array(t_string_storage)dyn_storage": {
        "base": "t_string_storage",
        "encoding": "dynamic_array",
        "label": "string[]",
        "numberOfBytes": "32"
      },
      "t_bool": {
        "encoding": "inplace",
        "label": "bool",
        "numberOfBytes": "1"
      },
      "t_mapping(t_address,t_bool)": {
        "encoding": "mapping",
        "key": "t_address",
        "label": "mapping(address => bool)",
        "numberOfBytes": "32",
        "value": "t_bool"
      },
      "t_mapping(t_address,t_mapping(t_address,t_bool))": {
        "encoding": "mapping",
        "key": "t_address",
        "label": "mapping(address => mapping(address => bool))",
        "numberOfBytes": "32",
        "value": "t_mapping(t_address,t_bool)"
      },
      "t_mapping(t_address,t_uint256)": {
        "encoding": "mapping",
        "key": "t_address",
        "label": "mapping(address => uint256)",
        "numberOfBytes": "32",
        "value": "t_uint256"
      },
      "t_mapping(t_uint256,t_address)": {
        "encoding": "mapping",
        "key": "t_uint256",
        "label": "mapping(uint256 => address)",
        "numberOfBytes": "32",
        "value": "t_address"
      },
      "t_mapping(t_uint256,t_string_storage)": {
        "encoding": "mapping",
        "key": "t_uint256",
        "label": "mapping(uint256 => string)",
        "numberOfBytes": "32",
        "value": "t_string_storage"
      },
      "t_string_storage": {
        "encoding": "bytes",
        "label": "string",
        "numberOfBytes": "32"
      },
      "t_uint256": {
        "encoding": "inplace",
        "label": "uint256",
        "numberOfBytes": "32"
      }
    }
  }
}